{
  "abi": [
    {
      "type": "constructor",
      "inputs": [],
      "stateMutability": "nonpayable"
    },
    {
      "type": "function",
      "name": "getValue",
      "inputs": [],
      "outputs": [
        {
          "name": "",
          "type": "uint256",
          "internalType": "uint256"
        }
      ],
      "stateMutability": "view"
    },
    {
      "type": "function",
      "name": "myVariable",
      "inputs": [],
      "outputs": [
        {
          "name": "",
          "type": "uint256",
          "internalType": "uint256"
        }
      ],
      "stateMutability": "view"
    },
    {
      "type": "function",
      "name": "setValue",
      "inputs": [
        {
          "name": "_value",
          "type": "uint256",
          "internalType": "uint256"
        }
      ],
      "outputs": [],
      "stateMutability": "nonpayable"
    }
  ],
  "bytecode": {
    "object": "0x6080604052348015600f57600080fd5b50607b60005560bf8060226000396000f3fe6080604052348015600f57600080fd5b5060043610603c5760003560e01c8063209652551460415780634e59ff561460575780635524107714605f575b600080fd5b6000545b60405190815260200160405180910390f35b604560005481565b606f606a3660046071565b600055565b005b600060208284031215608257600080fd5b503591905056fea264697066735822122014a64b18b298128f7dcf1ff5c7eca5866c77c203cffdecb537b7128bc4b8bfd764736f6c634300081c0033",
    "linkReferences": {}
  },
  "methodIdentifiers": {
    "getValue()": "20965255",
    "myVariable()": "4e59ff56",
    "setValue(uint256)": "55241077"
  },
  "id": 25
}